{
  "contractName": "WAXPERC20UpgradeSafe",
  "abi": [
    {
      "anonymous": false,
      "inputs": [
        {
          "indexed": true,
          "internalType": "address",
          "name": "owner",
          "type": "address"
        },
        {
          "indexed": true,
          "internalType": "address",
          "name": "spender",
          "type": "address"
        },
        {
          "indexed": false,
          "internalType": "uint256",
          "name": "value",
          "type": "uint256"
        }
      ],
      "name": "Approval",
      "type": "event"
    },
    {
      "anonymous": false,
      "inputs": [
        {
          "indexed": false,
          "internalType": "uint8",
          "name": "version",
          "type": "uint8"
        }
      ],
      "name": "Initialized",
      "type": "event"
    },
    {
      "anonymous": false,
      "inputs": [
        {
          "indexed": true,
          "internalType": "address",
          "name": "previousOwner",
          "type": "address"
        },
        {
          "indexed": true,
          "internalType": "address",
          "name": "newOwner",
          "type": "address"
        }
      ],
      "name": "OwnershipTransferred",
      "type": "event"
    },
    {
      "anonymous": false,
      "inputs": [
        {
          "indexed": true,
          "internalType": "address",
          "name": "from",
          "type": "address"
        },
        {
          "indexed": false,
          "internalType": "uint256",
          "name": "amount",
          "type": "uint256"
        }
      ],
      "name": "TokenSwap",
      "type": "event"
    },
    {
      "anonymous": false,
      "inputs": [
        {
          "indexed": true,
          "internalType": "address",
          "name": "from",
          "type": "address"
        },
        {
          "indexed": true,
          "internalType": "address",
          "name": "to",
          "type": "address"
        },
        {
          "indexed": false,
          "internalType": "uint256",
          "name": "value",
          "type": "uint256"
        }
      ],
      "name": "Transfer",
      "type": "event"
    },
    {
      "inputs": [],
      "name": "DECIMALS",
      "outputs": [
        {
          "internalType": "uint8",
          "name": "",
          "type": "uint8"
        }
      ],
      "stateMutability": "view",
      "type": "function",
      "constant": true
    },
    {
      "inputs": [],
      "name": "INITIAL_SUPPLY",
      "outputs": [
        {
          "internalType": "uint256",
          "name": "",
          "type": "uint256"
        }
      ],
      "stateMutability": "view",
      "type": "function",
      "constant": true
    },
    {
      "inputs": [
        {
          "internalType": "address",
          "name": "owner",
          "type": "address"
        },
        {
          "internalType": "address",
          "name": "spender",
          "type": "address"
        }
      ],
      "name": "allowance",
      "outputs": [
        {
          "internalType": "uint256",
          "name": "",
          "type": "uint256"
        }
      ],
      "stateMutability": "view",
      "type": "function",
      "constant": true
    },
    {
      "inputs": [
        {
          "internalType": "address",
          "name": "spender",
          "type": "address"
        },
        {
          "internalType": "uint256",
          "name": "amount",
          "type": "uint256"
        }
      ],
      "name": "approve",
      "outputs": [
        {
          "internalType": "bool",
          "name": "",
          "type": "bool"
        }
      ],
      "stateMutability": "nonpayable",
      "type": "function"
    },
    {
      "inputs": [
        {
          "internalType": "address",
          "name": "account",
          "type": "address"
        }
      ],
      "name": "balanceOf",
      "outputs": [
        {
          "internalType": "uint256",
          "name": "",
          "type": "uint256"
        }
      ],
      "stateMutability": "view",
      "type": "function",
      "constant": true
    },
    {
      "inputs": [
        {
          "internalType": "address",
          "name": "spender",
          "type": "address"
        },
        {
          "internalType": "uint256",
          "name": "subtractedValue",
          "type": "uint256"
        }
      ],
      "name": "decreaseAllowance",
      "outputs": [
        {
          "internalType": "bool",
          "name": "",
          "type": "bool"
        }
      ],
      "stateMutability": "nonpayable",
      "type": "function"
    },
    {
      "inputs": [
        {
          "internalType": "address",
          "name": "spender",
          "type": "address"
        },
        {
          "internalType": "uint256",
          "name": "addedValue",
          "type": "uint256"
        }
      ],
      "name": "increaseAllowance",
      "outputs": [
        {
          "internalType": "bool",
          "name": "",
          "type": "bool"
        }
      ],
      "stateMutability": "nonpayable",
      "type": "function"
    },
    {
      "inputs": [],
      "name": "name",
      "outputs": [
        {
          "internalType": "string",
          "name": "",
          "type": "string"
        }
      ],
      "stateMutability": "view",
      "type": "function",
      "constant": true
    },
    {
      "inputs": [],
      "name": "owner",
      "outputs": [
        {
          "internalType": "address",
          "name": "",
          "type": "address"
        }
      ],
      "stateMutability": "view",
      "type": "function",
      "constant": true
    },
    {
      "inputs": [],
      "name": "renounceOwnership",
      "outputs": [],
      "stateMutability": "nonpayable",
      "type": "function"
    },
    {
      "inputs": [],
      "name": "symbol",
      "outputs": [
        {
          "internalType": "string",
          "name": "",
          "type": "string"
        }
      ],
      "stateMutability": "view",
      "type": "function",
      "constant": true
    },
    {
      "inputs": [],
      "name": "totalSupply",
      "outputs": [
        {
          "internalType": "uint256",
          "name": "",
          "type": "uint256"
        }
      ],
      "stateMutability": "view",
      "type": "function",
      "constant": true
    },
    {
      "inputs": [
        {
          "internalType": "address",
          "name": "to",
          "type": "address"
        },
        {
          "internalType": "uint256",
          "name": "amount",
          "type": "uint256"
        }
      ],
      "name": "transfer",
      "outputs": [
        {
          "internalType": "bool",
          "name": "",
          "type": "bool"
        }
      ],
      "stateMutability": "nonpayable",
      "type": "function"
    },
    {
      "inputs": [
        {
          "internalType": "address",
          "name": "from",
          "type": "address"
        },
        {
          "internalType": "address",
          "name": "to",
          "type": "address"
        },
        {
          "internalType": "uint256",
          "name": "amount",
          "type": "uint256"
        }
      ],
      "name": "transferFrom",
      "outputs": [
        {
          "internalType": "bool",
          "name": "",
          "type": "bool"
        }
      ],
      "stateMutability": "nonpayable",
      "type": "function"
    },
    {
      "inputs": [
        {
          "internalType": "address",
          "name": "newOwner",
          "type": "address"
        }
      ],
      "name": "transferOwnership",
      "outputs": [],
      "stateMutability": "nonpayable",
      "type": "function"
    },
    {
      "inputs": [],
      "name": "waxToken",
      "outputs": [
        {
          "internalType": "contract IERC20",
          "name": "",
          "type": "address"
        }
      ],
      "stateMutability": "view",
      "type": "function",
      "constant": true
    },
    {
      "inputs": [
        {
          "internalType": "address",
          "name": "escrow",
          "type": "address"
        }
      ],
      "name": "initialize",
      "outputs": [],
      "stateMutability": "nonpayable",
      "type": "function"
    },
    {
      "inputs": [],
      "name": "decimals",
      "outputs": [
        {
          "internalType": "uint8",
          "name": "",
          "type": "uint8"
        }
      ],
      "stateMutability": "pure",
      "type": "function",
      "constant": true
    },
    {
      "inputs": [
        {
          "internalType": "uint256",
          "name": "amount",
          "type": "uint256"
        }
      ],
      "name": "burn",
      "outputs": [],
      "stateMutability": "nonpayable",
      "type": "function"
    },
    {
      "inputs": [
        {
          "internalType": "address",
          "name": "account",
          "type": "address"
        },
        {
          "internalType": "uint256",
          "name": "amount",
          "type": "uint256"
        }
      ],
      "name": "burnFrom",
      "outputs": [],
      "stateMutability": "nonpayable",
      "type": "function"
    },
    {
      "inputs": [
        {
          "internalType": "uint256",
          "name": "amount",
          "type": "uint256"
        }
      ],
      "name": "swapogwax",
      "outputs": [],
      "stateMutability": "nonpayable",
      "type": "function"
    },
    {
      "inputs": [
        {
          "internalType": "address",
          "name": "_waxToken",
          "type": "address"
        }
      ],
      "name": "setWaxToken",
      "outputs": [],
      "stateMutability": "nonpayable",
      "type": "function"
    }
  ],
  "bytecode": "0x608060405234801561001057600080fd5b50612979806100206000396000f3fe608060405234801561001057600080fd5b50600436106101425760003560e01c806379cc6790116100b8578063bc5234791161007c578063bc5234791461037b578063c4d66de814610397578063dd62ed3e146103b3578063dea1d45f146103e3578063f2fde38b146103ff578063fdf541941461041b57610142565b806379cc6790146102c35780638da5cb5b146102df57806395d89b41146102fd578063a457c2d71461031b578063a9059cbb1461034b57610142565b80632ff2e9dc1161010a5780632ff2e9dc14610201578063313ce5671461021f578063395093511461023d57806342966c681461026d57806370a0823114610289578063715018a6146102b957610142565b806306fdde0314610147578063095ea7b31461016557806318160ddd1461019557806323b872dd146101b35780632e0f2625146101e3575b600080fd5b61014f610439565b60405161015c9190611b97565b60405180910390f35b61017f600480360381019061017a9190611c52565b6104cb565b60405161018c9190611cad565b60405180910390f35b61019d6104ee565b6040516101aa9190611cd7565b60405180910390f35b6101cd60048036038101906101c89190611cf2565b6104f8565b6040516101da9190611cad565b60405180910390f35b6101eb610527565b6040516101f89190611d61565b60405180910390f35b61020961052c565b6040516102169190611cd7565b60405180910390f35b610227610538565b6040516102349190611d61565b60405180910390f35b61025760048036038101906102529190611c52565b610541565b6040516102649190611cad565b60405180910390f35b61028760048036038101906102829190611d7c565b610578565b005b6102a3600480360381019061029e9190611da9565b610600565b6040516102b09190611cd7565b60405180910390f35b6102c1610649565b005b6102dd60048036038101906102d89190611c52565b6106d1565b005b6102e761075b565b6040516102f49190611de5565b60405180910390f35b610305610785565b6040516103129190611b97565b60405180910390f35b61033560048036038101906103309190611c52565b610817565b6040516103429190611cad565b60405180910390f35b61036560048036038101906103609190611c52565b61088e565b6040516103729190611cad565b60405180910390f35b61039560048036038101906103909190611da9565b6108b1565b005b6103b160048036038101906103ac9190611da9565b610971565b005b6103cd60048036038101906103c89190611e00565b610a8c565b6040516103da9190611cd7565b60405180910390f35b6103fd60048036038101906103f89190611d7c565b610b13565b005b61041960048036038101906104149190611da9565b610d78565b005b610423610e6f565b6040516104309190611e9f565b60405180910390f35b60606068805461044890611ee9565b80601f016020809104026020016040519081016040528092919081815260200182805461047490611ee9565b80156104c15780601f10610496576101008083540402835291602001916104c1565b820191906000526020600020905b8154815290600101906020018083116104a457829003601f168201915b5050505050905090565b6000806104d6610e95565b90506104e3818585610e9d565b600191505092915050565b6000606754905090565b600080610503610e95565b9050610510858285611066565b61051b8585856110f2565b60019150509392505050565b600881565b67055d10250b31038481565b60006008905090565b60008061054c610e95565b905061056d81858561055e8589610a8c565b6105689190611f49565b610e9d565b600191505092915050565b610580610e95565b73ffffffffffffffffffffffffffffffffffffffff1661059e61075b565b73ffffffffffffffffffffffffffffffffffffffff16146105f4576040517f08c379a00000000000000000000000000000000000000000000000000000000081526004016105eb90611feb565b60405180910390fd5b6105fd81611374565b50565b6000606560008373ffffffffffffffffffffffffffffffffffffffff1673ffffffffffffffffffffffffffffffffffffffff168152602001908152602001600020549050919050565b610651610e95565b73ffffffffffffffffffffffffffffffffffffffff1661066f61075b565b73ffffffffffffffffffffffffffffffffffffffff16146106c5576040517f08c379a00000000000000000000000000000000000000000000000000000000081526004016106bc90611feb565b60405180910390fd5b6106cf6000611388565b565b6106d9610e95565b73ffffffffffffffffffffffffffffffffffffffff166106f761075b565b73ffffffffffffffffffffffffffffffffffffffff161461074d576040517f08c379a000000000000000000000000000000000000000000000000000000000815260040161074490611feb565b60405180910390fd5b610757828261144e565b5050565b6000603360009054906101000a900473ffffffffffffffffffffffffffffffffffffffff16905090565b60606069805461079490611ee9565b80601f01602080910402602001604051908101604052809291908181526020018280546107c090611ee9565b801561080d5780601f106107e25761010080835404028352916020019161080d565b820191906000526020600020905b8154815290600101906020018083116107f057829003601f168201915b5050505050905090565b600080610822610e95565b905060006108308286610a8c565b905083811015610875576040517f08c379a000000000000000000000000000000000000000000000000000000000815260040161086c9061207d565b60405180910390fd5b6108828286868403610e9d565b60019250505092915050565b600080610899610e95565b90506108a68185856110f2565b600191505092915050565b6108b9610e95565b73ffffffffffffffffffffffffffffffffffffffff166108d761075b565b73ffffffffffffffffffffffffffffffffffffffff161461092d576040517f08c379a000000000000000000000000000000000000000000000000000000000815260040161092490611feb565b60405180910390fd5b8060c960006101000a81548173ffffffffffffffffffffffffffffffffffffffff021916908373ffffffffffffffffffffffffffffffffffffffff16021790555050565b600061097d600161146e565b905080156109a1576001600060016101000a81548160ff0219169083151502179055505b610a156040518060400160405280600a81526020017f5741585020546f6b656e000000000000000000000000000000000000000000008152506040518060400160405280600481526020017f574158500000000000000000000000000000000000000000000000000000000081525061155e565b610a278267055d10250b3103846115bb565b610a2f61171b565b8015610a885760008060016101000a81548160ff0219169083151502179055507f7f26b83ff96e1f2b6a682f133852f6798a09c465da95921460cefb38474024986001604051610a7f91906120d8565b60405180910390a15b5050565b6000606660008473ffffffffffffffffffffffffffffffffffffffff1673ffffffffffffffffffffffffffffffffffffffff16815260200190815260200160002060008373ffffffffffffffffffffffffffffffffffffffff1673ffffffffffffffffffffffffffffffffffffffff16815260200190815260200160002054905092915050565b60c960009054906101000a900473ffffffffffffffffffffffffffffffffffffffff16338260008373ffffffffffffffffffffffffffffffffffffffff1663dd62ed3e84306040518363ffffffff1660e01b8152600401610b759291906120f3565b602060405180830381865afa158015610b92573d6000803e3d6000fd5b505050506040513d601f19601f82011682018060405250810190610bb69190612131565b905080821115610bfb576040517f08c379a0000000000000000000000000000000000000000000000000000000008152600401610bf2906121aa565b60405180910390fd5b600033905060c960009054906101000a900473ffffffffffffffffffffffffffffffffffffffff1673ffffffffffffffffffffffffffffffffffffffff166323b872dd8230896040518463ffffffff1660e01b8152600401610c5f939291906121ca565b6020604051808303816000875af1158015610c7e573d6000803e3d6000fd5b505050506040513d601f19601f82011682018060405250810190610ca2919061222d565b503073ffffffffffffffffffffffffffffffffffffffff1663a9059cbb82886040518363ffffffff1660e01b8152600401610cde92919061225a565b6020604051808303816000875af1158015610cfd573d6000803e3d6000fd5b505050506040513d601f19601f82011682018060405250810190610d21919061222d565b508073ffffffffffffffffffffffffffffffffffffffff167fbf9e6b0e2f54301fefabfdfcc95932f2fb2749f8f0ef2dd23a60d0b970fdf17f87604051610d689190611cd7565b60405180910390a2505050505050565b610d80610e95565b73ffffffffffffffffffffffffffffffffffffffff16610d9e61075b565b73ffffffffffffffffffffffffffffffffffffffff1614610df4576040517f08c379a0000000000000000000000000000000000000000000000000000000008152600401610deb90611feb565b60405180910390fd5b600073ffffffffffffffffffffffffffffffffffffffff168173ffffffffffffffffffffffffffffffffffffffff1603610e63576040517f08c379a0000000000000000000000000000000000000000000000000000000008152600401610e5a906122f5565b60405180910390fd5b610e6c81611388565b50565b60c960009054906101000a900473ffffffffffffffffffffffffffffffffffffffff1681565b600033905090565b600073ffffffffffffffffffffffffffffffffffffffff168373ffffffffffffffffffffffffffffffffffffffff1603610f0c576040517f08c379a0000000000000000000000000000000000000000000000000000000008152600401610f0390612387565b60405180910390fd5b600073ffffffffffffffffffffffffffffffffffffffff168273ffffffffffffffffffffffffffffffffffffffff1603610f7b576040517f08c379a0000000000000000000000000000000000000000000000000000000008152600401610f7290612419565b60405180910390fd5b80606660008573ffffffffffffffffffffffffffffffffffffffff1673ffffffffffffffffffffffffffffffffffffffff16815260200190815260200160002060008473ffffffffffffffffffffffffffffffffffffffff1673ffffffffffffffffffffffffffffffffffffffff168152602001908152602001600020819055508173ffffffffffffffffffffffffffffffffffffffff168373ffffffffffffffffffffffffffffffffffffffff167f8c5be1e5ebec7d5bd14f71427d1e84f3dd0314c0f7b2291e5b200ac8c7c3b925836040516110599190611cd7565b60405180910390a3505050565b60006110728484610a8c565b90507fffffffffffffffffffffffffffffffffffffffffffffffffffffffffffffffff81146110ec57818110156110de576040517f08c379a00000000000000000000000000000000000000000000000000000000081526004016110d590612485565b60405180910390fd5b6110eb8484848403610e9d565b5b50505050565b600073ffffffffffffffffffffffffffffffffffffffff168373ffffffffffffffffffffffffffffffffffffffff1603611161576040517f08c379a000000000000000000000000000000000000000000000000000000000815260040161115890612517565b60405180910390fd5b600073ffffffffffffffffffffffffffffffffffffffff168273ffffffffffffffffffffffffffffffffffffffff16036111d0576040517f08c379a00000000000000000000000000000000000000000000000000000000081526004016111c7906125a9565b60405180910390fd5b6111db838383611774565b6000606560008573ffffffffffffffffffffffffffffffffffffffff1673ffffffffffffffffffffffffffffffffffffffff16815260200190815260200160002054905081811015611262576040517f08c379a00000000000000000000000000000000000000000000000000000000081526004016112599061263b565b60405180910390fd5b818103606560008673ffffffffffffffffffffffffffffffffffffffff1673ffffffffffffffffffffffffffffffffffffffff1681526020019081526020016000208190555081606560008573ffffffffffffffffffffffffffffffffffffffff1673ffffffffffffffffffffffffffffffffffffffff16815260200190815260200160002060008282546112f79190611f49565b925050819055508273ffffffffffffffffffffffffffffffffffffffff168473ffffffffffffffffffffffffffffffffffffffff167fddf252ad1be2c89b69c2b068fc378daa952ba7f163c4a11628f55a4df523b3ef8460405161135b9190611cd7565b60405180910390a361136e848484611779565b50505050565b61138561137f610e95565b8261177e565b50565b6000603360009054906101000a900473ffffffffffffffffffffffffffffffffffffffff16905081603360006101000a81548173ffffffffffffffffffffffffffffffffffffffff021916908373ffffffffffffffffffffffffffffffffffffffff1602179055508173ffffffffffffffffffffffffffffffffffffffff168173ffffffffffffffffffffffffffffffffffffffff167f8be0079c531659141344cd1fd0a4f28419497f9722a3daafe3b4186f6b6457e060405160405180910390a35050565b6114608261145a610e95565b83611066565b61146a828261177e565b5050565b60008060019054906101000a900460ff16156114e55760018260ff1614801561149d575061149b30611956565b155b6114dc576040517f08c379a00000000000000000000000000000000000000000000000000000000081526004016114d3906126cd565b60405180910390fd5b60009050611559565b8160ff1660008054906101000a900460ff1660ff161061153a576040517f08c379a0000000000000000000000000000000000000000000000000000000008152600401611531906126cd565b60405180910390fd5b816000806101000a81548160ff021916908360ff160217905550600190505b919050565b600060019054906101000a900460ff166115ad576040517f08c379a00000000000000000000000000000000000000000000000000000000081526004016115a49061275f565b60405180910390fd5b6115b78282611979565b5050565b600073ffffffffffffffffffffffffffffffffffffffff168273ffffffffffffffffffffffffffffffffffffffff160361162a576040517f08c379a0000000000000000000000000000000000000000000000000000000008152600401611621906127cb565b60405180910390fd5b61163660008383611774565b80606760008282546116489190611f49565b9250508190555080606560008473ffffffffffffffffffffffffffffffffffffffff1673ffffffffffffffffffffffffffffffffffffffff168152602001908152602001600020600082825461169e9190611f49565b925050819055508173ffffffffffffffffffffffffffffffffffffffff16600073ffffffffffffffffffffffffffffffffffffffff167fddf252ad1be2c89b69c2b068fc378daa952ba7f163c4a11628f55a4df523b3ef836040516117039190611cd7565b60405180910390a361171760008383611779565b5050565b600060019054906101000a900460ff1661176a576040517f08c379a00000000000000000000000000000000000000000000000000000000081526004016117619061275f565b60405180910390fd5b6117726119fa565b565b505050565b505050565b600073ffffffffffffffffffffffffffffffffffffffff168273ffffffffffffffffffffffffffffffffffffffff16036117ed576040517f08c379a00000000000000000000000000000000000000000000000000000000081526004016117e49061285d565b60405180910390fd5b6117f982600083611774565b6000606560008473ffffffffffffffffffffffffffffffffffffffff1673ffffffffffffffffffffffffffffffffffffffff16815260200190815260200160002054905081811015611880576040517f08c379a0000000000000000000000000000000000000000000000000000000008152600401611877906128ef565b60405180910390fd5b818103606560008573ffffffffffffffffffffffffffffffffffffffff1673ffffffffffffffffffffffffffffffffffffffff1681526020019081526020016000208190555081606760008282546118d8919061290f565b92505081905550600073ffffffffffffffffffffffffffffffffffffffff168373ffffffffffffffffffffffffffffffffffffffff167fddf252ad1be2c89b69c2b068fc378daa952ba7f163c4a11628f55a4df523b3ef8460405161193d9190611cd7565b60405180910390a361195183600084611779565b505050565b6000808273ffffffffffffffffffffffffffffffffffffffff163b119050919050565b600060019054906101000a900460ff166119c8576040517f08c379a00000000000000000000000000000000000000000000000000000000081526004016119bf9061275f565b60405180910390fd5b81606890805190602001906119de929190611a5b565b5080606990805190602001906119f5929190611a5b565b505050565b600060019054906101000a900460ff16611a49576040517f08c379a0000000000000000000000000000000000000000000000000000000008152600401611a409061275f565b60405180910390fd5b611a59611a54610e95565b611388565b565b828054611a6790611ee9565b90600052602060002090601f016020900481019282611a895760008555611ad0565b82601f10611aa257805160ff1916838001178555611ad0565b82800160010185558215611ad0579182015b82811115611acf578251825591602001919060010190611ab4565b5b509050611add9190611ae1565b5090565b5b80821115611afa576000816000905550600101611ae2565b5090565b600081519050919050565b600082825260208201905092915050565b60005b83811015611b38578082015181840152602081019050611b1d565b83811115611b47576000848401525b50505050565b6000601f19601f8301169050919050565b6000611b6982611afe565b611b738185611b09565b9350611b83818560208601611b1a565b611b8c81611b4d565b840191505092915050565b60006020820190508181036000830152611bb18184611b5e565b905092915050565b600080fd5b600073ffffffffffffffffffffffffffffffffffffffff82169050919050565b6000611be982611bbe565b9050919050565b611bf981611bde565b8114611c0457600080fd5b50565b600081359050611c1681611bf0565b92915050565b6000819050919050565b611c2f81611c1c565b8114611c3a57600080fd5b50565b600081359050611c4c81611c26565b92915050565b60008060408385031215611c6957611c68611bb9565b5b6000611c7785828601611c07565b9250506020611c8885828601611c3d565b9150509250929050565b60008115159050919050565b611ca781611c92565b82525050565b6000602082019050611cc26000830184611c9e565b92915050565b611cd181611c1c565b82525050565b6000602082019050611cec6000830184611cc8565b92915050565b600080600060608486031215611d0b57611d0a611bb9565b5b6000611d1986828701611c07565b9350506020611d2a86828701611c07565b9250506040611d3b86828701611c3d565b9150509250925092565b600060ff82169050919050565b611d5b81611d45565b82525050565b6000602082019050611d766000830184611d52565b92915050565b600060208284031215611d9257611d91611bb9565b5b6000611da084828501611c3d565b91505092915050565b600060208284031215611dbf57611dbe611bb9565b5b6000611dcd84828501611c07565b91505092915050565b611ddf81611bde565b82525050565b6000602082019050611dfa6000830184611dd6565b92915050565b60008060408385031215611e1757611e16611bb9565b5b6000611e2585828601611c07565b9250506020611e3685828601611c07565b9150509250929050565b6000819050919050565b6000611e65611e60611e5b84611bbe565b611e40565b611bbe565b9050919050565b6000611e7782611e4a565b9050919050565b6000611e8982611e6c565b9050919050565b611e9981611e7e565b82525050565b6000602082019050611eb46000830184611e90565b92915050565b7f4e487b7100000000000000000000000000000000000000000000000000000000600052602260045260246000fd5b60006002820490506001821680611f0157607f821691505b602082108103611f1457611f13611eba565b5b50919050565b7f4e487b7100000000000000000000000000000000000000000000000000000000600052601160045260246000fd5b6000611f5482611c1c565b9150611f5f83611c1c565b9250827fffffffffffffffffffffffffffffffffffffffffffffffffffffffffffffffff03821115611f9457611f93611f1a565b5b828201905092915050565b7f4f776e61626c653a2063616c6c6572206973206e6f7420746865206f776e6572600082015250565b6000611fd5602083611b09565b9150611fe082611f9f565b602082019050919050565b6000602082019050818103600083015261200481611fc8565b9050919050565b7f45524332303a2064656372656173656420616c6c6f77616e63652062656c6f7760008201527f207a65726f000000000000000000000000000000000000000000000000000000602082015250565b6000612067602583611b09565b91506120728261200b565b604082019050919050565b600060208201905081810360008301526120968161205a565b9050919050565b6000819050919050565b60006120c26120bd6120b88461209d565b611e40565b611d45565b9050919050565b6120d2816120a7565b82525050565b60006020820190506120ed60008301846120c9565b92915050565b60006040820190506121086000830185611dd6565b6121156020830184611dd6565b9392505050565b60008151905061212b81611c26565b92915050565b60006020828403121561214757612146611bb9565b5b60006121558482850161211c565b91505092915050565b7f4552523a3a4e4f545f454e4f5547485f414c4c4f57414e434500000000000000600082015250565b6000612194601983611b09565b915061219f8261215e565b602082019050919050565b600060208201905081810360008301526121c381612187565b9050919050565b60006060820190506121df6000830186611dd6565b6121ec6020830185611dd6565b6121f96040830184611cc8565b949350505050565b61220a81611c92565b811461221557600080fd5b50565b60008151905061222781612201565b92915050565b60006020828403121561224357612242611bb9565b5b600061225184828501612218565b91505092915050565b600060408201905061226f6000830185611dd6565b61227c6020830184611cc8565b9392505050565b7f4f776e61626c653a206e6577206f776e657220697320746865207a65726f206160008201527f6464726573730000000000000000000000000000000000000000000000000000602082015250565b60006122df602683611b09565b91506122ea82612283565b604082019050919050565b6000602082019050818103600083015261230e816122d2565b9050919050565b7f45524332303a20617070726f76652066726f6d20746865207a65726f2061646460008201527f7265737300000000000000000000000000000000000000000000000000000000602082015250565b6000612371602483611b09565b915061237c82612315565b604082019050919050565b600060208201905081810360008301526123a081612364565b9050919050565b7f45524332303a20617070726f766520746f20746865207a65726f20616464726560008201527f7373000000000000000000000000000000000000000000000000000000000000602082015250565b6000612403602283611b09565b915061240e826123a7565b604082019050919050565b60006020820190508181036000830152612432816123f6565b9050919050565b7f45524332303a20696e73756666696369656e7420616c6c6f77616e6365000000600082015250565b600061246f601d83611b09565b915061247a82612439565b602082019050919050565b6000602082019050818103600083015261249e81612462565b9050919050565b7f45524332303a207472616e736665722066726f6d20746865207a65726f20616460008201527f6472657373000000000000000000000000000000000000000000000000000000602082015250565b6000612501602583611b09565b915061250c826124a5565b604082019050919050565b60006020820190508181036000830152612530816124f4565b9050919050565b7f45524332303a207472616e7366657220746f20746865207a65726f206164647260008201527f6573730000000000000000000000000000000000000000000000000000000000602082015250565b6000612593602383611b09565b915061259e82612537565b604082019050919050565b600060208201905081810360008301526125c281612586565b9050919050565b7f45524332303a207472616e7366657220616d6f756e742065786365656473206260008201527f616c616e63650000000000000000000000000000000000000000000000000000602082015250565b6000612625602683611b09565b9150612630826125c9565b604082019050919050565b6000602082019050818103600083015261265481612618565b9050919050565b7f496e697469616c697a61626c653a20636f6e747261637420697320616c72656160008201527f647920696e697469616c697a6564000000000000000000000000000000000000602082015250565b60006126b7602e83611b09565b91506126c28261265b565b604082019050919050565b600060208201905081810360008301526126e6816126aa565b9050919050565b7f496e697469616c697a61626c653a20636f6e7472616374206973206e6f74206960008201527f6e697469616c697a696e67000000000000000000000000000000000000000000602082015250565b6000612749602b83611b09565b9150612754826126ed565b604082019050919050565b600060208201905081810360008301526127788161273c565b9050919050565b7f45524332303a206d696e7420746f20746865207a65726f206164647265737300600082015250565b60006127b5601f83611b09565b91506127c08261277f565b602082019050919050565b600060208201905081810360008301526127e4816127a8565b9050919050565b7f45524332303a206275726e2066726f6d20746865207a65726f2061646472657360008201527f7300000000000000000000000000000000000000000000000000000000000000602082015250565b6000612847602183611b09565b9150612852826127eb565b604082019050919050565b600060208201905081810360008301526128768161283a565b9050919050565b7f45524332303a206275726e20616d6f756e7420657863656564732062616c616e60008201527f6365000000000000000000000000000000000000000000000000000000000000602082015250565b60006128d9602283611b09565b91506128e48261287d565b604082019050919050565b60006020820190508181036000830152612908816128cc565b9050919050565b600061291a82611c1c565b915061292583611c1c565b92508282101561293857612937611f1a565b5b82820390509291505056fea2646970667358221220da24a1dc006fed9a3d5ebc5d7216fd0fc9cd9da65e37ecf347e6303990c6b19964736f6c634300080e0033",
  "immutableReferences": {},
  "source": "pragma solidity 0.8.14;\n\nimport \"@openzeppelin/contracts-upgradeable/proxy/utils/Initializable.sol\";\nimport \"@openzeppelin/contracts-upgradeable/token/ERC20/extensions/ERC20BurnableUpgradeable.sol\";\nimport \"@openzeppelin/contracts/token/ERC20/IERC20.sol\";\nimport \"@openzeppelin/contracts-upgradeable/access/OwnableUpgradeable.sol\";\n\n/**\n * @dev Vanilla upgradeable {ERC20} \"WAXP\" token:\n *\n */\ncontract WAXPERC20UpgradeSafe is Initializable, OwnableUpgradeable, ERC20BurnableUpgradeable {\n    uint8 public constant DECIMALS = 8;                         // The number of decimals for display\n    uint256 public constant INITIAL_SUPPLY = 386482894311326596;  // supply specified in base units\n\n    IERC20 public waxToken;\n\n    /**\n    * @dev triggered when tokens are transferred from the smart contract\n    *\n    * @param from  account that the tokens are sent to\n    * @param amount  amount transferred\n    */\n    event TokenSwap(\n        address indexed from,\n        uint256 amount\n    );\n\n    modifier _hasAllowance(\n        IERC20 _token,\n        address _allower,\n        uint256 _amount\n    ) {\n        uint256 ourAllowance = _token.allowance(_allower, address(this));\n        require(_amount <= ourAllowance, 'ERR::NOT_ENOUGH_ALLOWANCE');\n        _;\n    }\n\n    /**\n     * See {ERC20-constructor}.\n     */\n    function initialize(address escrow) public initializer {\n        ERC20Upgradeable.__ERC20_init(\"WAXP Token\", \"WAXP\");\n        _mint(escrow, INITIAL_SUPPLY);\n        __Ownable_init();\n    }\n\n    function decimals() public pure override returns (uint8) {\n        return DECIMALS;\n    }\n\n    /**\n     * @dev Destroys `amount` tokens from the contract owner.\n     *\n     * See {ERC20-_burn}.\n     * - only owner allow to call\n     */\n    function burn(uint256 amount) public override onlyOwner {\n        super.burn(amount);\n    }\n\n    /**\n     * @dev Destroys `amount` tokens from `account`, deducting from the caller's\n     * allowance.\n     *\n     * See {ERC20-_burn} and {ERC20-allowance}.\n     *\n     * Requirements:\n     *\n     * - the caller must have allowance for ``accounts``'s tokens of at least\n     * `amount`.\n     * - only owner allow to call\n     */\n    function burnFrom(address account, uint256 amount) public override onlyOwner {\n        super.burnFrom(account, amount);\n    }\n\n    /**\n    * @dev swap WAXP from old contract to get WAXP from this contract\n    *\n    * @param amount         amount of WAXP want to swap\n    */\n    function swapogwax(uint256 amount) public _hasAllowance(waxToken, msg.sender, amount) {\n        address from = msg.sender;\n        waxToken.transferFrom(from, address(this), amount);\n        this.transfer(from, amount);\n        emit TokenSwap(from, amount);\n    }\n\n    /**\n    * @dev set WAX token contract address\n    *\n    * @param _waxToken         WAX token address\n    */\n    function setWaxToken(address _waxToken) public onlyOwner {\n        waxToken = IERC20(_waxToken);\n    }\n}\n",
  "sourcePath": "/home/aaron/dev/projects/wax/waxp-erc20/contracts/WAXPERC20.sol",
  "compiler": {
    "name": "solc",
    "version": "0.8.14+commit.80d49f37.Emscripten.clang"
  },
  "schemaVersion": "3.4.7",
  "updatedAt": "2022-10-11T21:40:13.218Z",
  "networkType": "ethereum",
  "devdoc": {
    "details": "Vanilla upgradeable {ERC20} \"WAXP\" token:",
    "events": {
      "TokenSwap(address,uint256)": {
        "details": "triggered when tokens are transferred from the smart contract",
        "params": {
          "amount": "amount transferred",
          "from": "account that the tokens are sent to"
        }
      }
    },
    "kind": "dev",
    "methods": {
      "allowance(address,address)": {
        "details": "See {IERC20-allowance}."
      },
      "approve(address,uint256)": {
        "details": "See {IERC20-approve}. NOTE: If `amount` is the maximum `uint256`, the allowance is not updated on `transferFrom`. This is semantically equivalent to an infinite approval. Requirements: - `spender` cannot be the zero address."
      },
      "balanceOf(address)": {
        "details": "See {IERC20-balanceOf}."
      },
      "burn(uint256)": {
        "details": "Destroys `amount` tokens from the contract owner. See {ERC20-_burn}. - only owner allow to call"
      },
      "burnFrom(address,uint256)": {
        "details": "Destroys `amount` tokens from `account`, deducting from the caller's allowance. See {ERC20-_burn} and {ERC20-allowance}. Requirements: - the caller must have allowance for ``accounts``'s tokens of at least `amount`. - only owner allow to call"
      },
      "decimals()": {
        "details": "Returns the number of decimals used to get its user representation. For example, if `decimals` equals `2`, a balance of `505` tokens should be displayed to a user as `5.05` (`505 / 10 ** 2`). Tokens usually opt for a value of 18, imitating the relationship between Ether and Wei. This is the value {ERC20} uses, unless this function is overridden; NOTE: This information is only used for _display_ purposes: it in no way affects any of the arithmetic of the contract, including {IERC20-balanceOf} and {IERC20-transfer}."
      },
      "decreaseAllowance(address,uint256)": {
        "details": "Atomically decreases the allowance granted to `spender` by the caller. This is an alternative to {approve} that can be used as a mitigation for problems described in {IERC20-approve}. Emits an {Approval} event indicating the updated allowance. Requirements: - `spender` cannot be the zero address. - `spender` must have allowance for the caller of at least `subtractedValue`."
      },
      "increaseAllowance(address,uint256)": {
        "details": "Atomically increases the allowance granted to `spender` by the caller. This is an alternative to {approve} that can be used as a mitigation for problems described in {IERC20-approve}. Emits an {Approval} event indicating the updated allowance. Requirements: - `spender` cannot be the zero address."
      },
      "name()": {
        "details": "Returns the name of the token."
      },
      "owner()": {
        "details": "Returns the address of the current owner."
      },
      "renounceOwnership()": {
        "details": "Leaves the contract without owner. It will not be possible to call `onlyOwner` functions anymore. Can only be called by the current owner. NOTE: Renouncing ownership will leave the contract without an owner, thereby removing any functionality that is only available to the owner."
      },
      "setWaxToken(address)": {
        "details": "set WAX token contract address",
        "params": {
          "_waxToken": "WAX token address"
        }
      },
      "swapogwax(uint256)": {
        "details": "swap WAXP from old contract to get WAXP from this contract",
        "params": {
          "amount": "amount of WAXP want to swap"
        }
      },
      "symbol()": {
        "details": "Returns the symbol of the token, usually a shorter version of the name."
      },
      "totalSupply()": {
        "details": "See {IERC20-totalSupply}."
      },
      "transfer(address,uint256)": {
        "details": "See {IERC20-transfer}. Requirements: - `to` cannot be the zero address. - the caller must have a balance of at least `amount`."
      },
      "transferFrom(address,address,uint256)": {
        "details": "See {IERC20-transferFrom}. Emits an {Approval} event indicating the updated allowance. This is not required by the EIP. See the note at the beginning of {ERC20}. NOTE: Does not update the allowance if the current allowance is the maximum `uint256`. Requirements: - `from` and `to` cannot be the zero address. - `from` must have a balance of at least `amount`. - the caller must have allowance for ``from``'s tokens of at least `amount`."
      },
      "transferOwnership(address)": {
        "details": "Transfers ownership of the contract to a new account (`newOwner`). Can only be called by the current owner."
      }
    },
    "version": 1
  },
  "userdoc": {
    "kind": "user",
    "methods": {
      "initialize(address)": {
        "notice": "See {ERC20-constructor}."
      }
    },
    "version": 1
  }
}