{
  "contractName": "WAXPERC20UpgradeSafe",
  "abi": [
    {
      "anonymous": false,
      "inputs": [
        {
          "indexed": true,
          "internalType": "address",
          "name": "owner",
          "type": "address"
        },
        {
          "indexed": true,
          "internalType": "address",
          "name": "spender",
          "type": "address"
        },
        {
          "indexed": false,
          "internalType": "uint256",
          "name": "value",
          "type": "uint256"
        }
      ],
      "name": "Approval",
      "type": "event"
    },
    {
      "anonymous": false,
      "inputs": [
        {
          "indexed": false,
          "internalType": "uint8",
          "name": "version",
          "type": "uint8"
        }
      ],
      "name": "Initialized",
      "type": "event"
    },
    {
      "anonymous": false,
      "inputs": [
        {
          "indexed": true,
          "internalType": "address",
          "name": "previousOwner",
          "type": "address"
        },
        {
          "indexed": true,
          "internalType": "address",
          "name": "newOwner",
          "type": "address"
        }
      ],
      "name": "OwnershipTransferred",
      "type": "event"
    },
    {
      "anonymous": false,
      "inputs": [
        {
          "indexed": true,
          "internalType": "address",
          "name": "from",
          "type": "address"
        },
        {
          "indexed": true,
          "internalType": "address",
          "name": "to",
          "type": "address"
        },
        {
          "indexed": false,
          "internalType": "uint256",
          "name": "value",
          "type": "uint256"
        }
      ],
      "name": "Transfer",
      "type": "event"
    },
    {
      "inputs": [],
      "name": "DECIMALS",
      "outputs": [
        {
          "internalType": "uint8",
          "name": "",
          "type": "uint8"
        }
      ],
      "stateMutability": "view",
      "type": "function",
      "constant": true
    },
    {
      "inputs": [],
      "name": "INITIAL_SUPPLY",
      "outputs": [
        {
          "internalType": "uint256",
          "name": "",
          "type": "uint256"
        }
      ],
      "stateMutability": "view",
      "type": "function",
      "constant": true
    },
    {
      "inputs": [
        {
          "internalType": "address",
          "name": "owner",
          "type": "address"
        },
        {
          "internalType": "address",
          "name": "spender",
          "type": "address"
        }
      ],
      "name": "allowance",
      "outputs": [
        {
          "internalType": "uint256",
          "name": "",
          "type": "uint256"
        }
      ],
      "stateMutability": "view",
      "type": "function",
      "constant": true
    },
    {
      "inputs": [
        {
          "internalType": "address",
          "name": "spender",
          "type": "address"
        },
        {
          "internalType": "uint256",
          "name": "amount",
          "type": "uint256"
        }
      ],
      "name": "approve",
      "outputs": [
        {
          "internalType": "bool",
          "name": "",
          "type": "bool"
        }
      ],
      "stateMutability": "nonpayable",
      "type": "function"
    },
    {
      "inputs": [
        {
          "internalType": "address",
          "name": "account",
          "type": "address"
        }
      ],
      "name": "balanceOf",
      "outputs": [
        {
          "internalType": "uint256",
          "name": "",
          "type": "uint256"
        }
      ],
      "stateMutability": "view",
      "type": "function",
      "constant": true
    },
    {
      "inputs": [
        {
          "internalType": "address",
          "name": "spender",
          "type": "address"
        },
        {
          "internalType": "uint256",
          "name": "subtractedValue",
          "type": "uint256"
        }
      ],
      "name": "decreaseAllowance",
      "outputs": [
        {
          "internalType": "bool",
          "name": "",
          "type": "bool"
        }
      ],
      "stateMutability": "nonpayable",
      "type": "function"
    },
    {
      "inputs": [
        {
          "internalType": "address",
          "name": "spender",
          "type": "address"
        },
        {
          "internalType": "uint256",
          "name": "addedValue",
          "type": "uint256"
        }
      ],
      "name": "increaseAllowance",
      "outputs": [
        {
          "internalType": "bool",
          "name": "",
          "type": "bool"
        }
      ],
      "stateMutability": "nonpayable",
      "type": "function"
    },
    {
      "inputs": [],
      "name": "name",
      "outputs": [
        {
          "internalType": "string",
          "name": "",
          "type": "string"
        }
      ],
      "stateMutability": "view",
      "type": "function",
      "constant": true
    },
    {
      "inputs": [],
      "name": "owner",
      "outputs": [
        {
          "internalType": "address",
          "name": "",
          "type": "address"
        }
      ],
      "stateMutability": "view",
      "type": "function",
      "constant": true
    },
    {
      "inputs": [],
      "name": "renounceOwnership",
      "outputs": [],
      "stateMutability": "nonpayable",
      "type": "function"
    },
    {
      "inputs": [],
      "name": "symbol",
      "outputs": [
        {
          "internalType": "string",
          "name": "",
          "type": "string"
        }
      ],
      "stateMutability": "view",
      "type": "function",
      "constant": true
    },
    {
      "inputs": [],
      "name": "totalSupply",
      "outputs": [
        {
          "internalType": "uint256",
          "name": "",
          "type": "uint256"
        }
      ],
      "stateMutability": "view",
      "type": "function",
      "constant": true
    },
    {
      "inputs": [
        {
          "internalType": "address",
          "name": "to",
          "type": "address"
        },
        {
          "internalType": "uint256",
          "name": "amount",
          "type": "uint256"
        }
      ],
      "name": "transfer",
      "outputs": [
        {
          "internalType": "bool",
          "name": "",
          "type": "bool"
        }
      ],
      "stateMutability": "nonpayable",
      "type": "function"
    },
    {
      "inputs": [
        {
          "internalType": "address",
          "name": "from",
          "type": "address"
        },
        {
          "internalType": "address",
          "name": "to",
          "type": "address"
        },
        {
          "internalType": "uint256",
          "name": "amount",
          "type": "uint256"
        }
      ],
      "name": "transferFrom",
      "outputs": [
        {
          "internalType": "bool",
          "name": "",
          "type": "bool"
        }
      ],
      "stateMutability": "nonpayable",
      "type": "function"
    },
    {
      "inputs": [
        {
          "internalType": "address",
          "name": "newOwner",
          "type": "address"
        }
      ],
      "name": "transferOwnership",
      "outputs": [],
      "stateMutability": "nonpayable",
      "type": "function"
    },
    {
      "inputs": [
        {
          "internalType": "address",
          "name": "escrow",
          "type": "address"
        }
      ],
      "name": "initialize",
      "outputs": [],
      "stateMutability": "nonpayable",
      "type": "function"
    },
    {
      "inputs": [],
      "name": "decimals",
      "outputs": [
        {
          "internalType": "uint8",
          "name": "",
          "type": "uint8"
        }
      ],
      "stateMutability": "pure",
      "type": "function",
      "constant": true
    },
    {
      "inputs": [
        {
          "internalType": "uint256",
          "name": "amount",
          "type": "uint256"
        }
      ],
      "name": "burn",
      "outputs": [],
      "stateMutability": "nonpayable",
      "type": "function"
    },
    {
      "inputs": [
        {
          "internalType": "address",
          "name": "account",
          "type": "address"
        },
        {
          "internalType": "uint256",
          "name": "amount",
          "type": "uint256"
        }
      ],
      "name": "burnFrom",
      "outputs": [],
      "stateMutability": "nonpayable",
      "type": "function"
    }
  ],
  "bytecode": "0x608060405234801561001057600080fd5b506123b7806100206000396000f3fe608060405234801561001057600080fd5b50600436106101215760003560e01c806370a08231116100ad578063a457c2d711610071578063a457c2d7146102fa578063a9059cbb1461032a578063c4d66de81461035a578063dd62ed3e14610376578063f2fde38b146103a657610121565b806370a0823114610268578063715018a61461029857806379cc6790146102a25780638da5cb5b146102be57806395d89b41146102dc57610121565b80632e0f2625116100f45780632e0f2625146101c25780632ff2e9dc146101e0578063313ce567146101fe578063395093511461021c57806342966c681461024c57610121565b806306fdde0314610126578063095ea7b31461014457806318160ddd1461017457806323b872dd14610192575b600080fd5b61012e6103c2565b60405161013b91906117d5565b60405180910390f35b61015e60048036038101906101599190611890565b610454565b60405161016b91906118eb565b60405180910390f35b61017c610477565b6040516101899190611915565b60405180910390f35b6101ac60048036038101906101a79190611930565b610481565b6040516101b991906118eb565b60405180910390f35b6101ca6104b0565b6040516101d7919061199f565b60405180910390f35b6101e86104b5565b6040516101f59190611915565b60405180910390f35b6102066104c1565b604051610213919061199f565b60405180910390f35b61023660048036038101906102319190611890565b6104ca565b60405161024391906118eb565b60405180910390f35b610266600480360381019061026191906119ba565b610501565b005b610282600480360381019061027d91906119e7565b610589565b60405161028f9190611915565b60405180910390f35b6102a06105d2565b005b6102bc60048036038101906102b79190611890565b61065a565b005b6102c66106e4565b6040516102d39190611a23565b60405180910390f35b6102e461070e565b6040516102f191906117d5565b60405180910390f35b610314600480360381019061030f9190611890565b6107a0565b60405161032191906118eb565b60405180910390f35b610344600480360381019061033f9190611890565b610817565b60405161035191906118eb565b60405180910390f35b610374600480360381019061036f91906119e7565b61083a565b005b610390600480360381019061038b9190611a3e565b610955565b60405161039d9190611915565b60405180910390f35b6103c060048036038101906103bb91906119e7565b6109dc565b005b6060606880546103d190611aad565b80601f01602080910402602001604051908101604052809291908181526020018280546103fd90611aad565b801561044a5780601f1061041f5761010080835404028352916020019161044a565b820191906000526020600020905b81548152906001019060200180831161042d57829003601f168201915b5050505050905090565b60008061045f610ad3565b905061046c818585610adb565b600191505092915050565b6000606754905090565b60008061048c610ad3565b9050610499858285610ca4565b6104a4858585610d30565b60019150509392505050565b600881565b67055d10250b31038481565b60006008905090565b6000806104d5610ad3565b90506104f68185856104e78589610955565b6104f19190611b0d565b610adb565b600191505092915050565b610509610ad3565b73ffffffffffffffffffffffffffffffffffffffff166105276106e4565b73ffffffffffffffffffffffffffffffffffffffff161461057d576040517f08c379a000000000000000000000000000000000000000000000000000000000815260040161057490611baf565b60405180910390fd5b61058681610fb2565b50565b6000606560008373ffffffffffffffffffffffffffffffffffffffff1673ffffffffffffffffffffffffffffffffffffffff168152602001908152602001600020549050919050565b6105da610ad3565b73ffffffffffffffffffffffffffffffffffffffff166105f86106e4565b73ffffffffffffffffffffffffffffffffffffffff161461064e576040517f08c379a000000000000000000000000000000000000000000000000000000000815260040161064590611baf565b60405180910390fd5b6106586000610fc6565b565b610662610ad3565b73ffffffffffffffffffffffffffffffffffffffff166106806106e4565b73ffffffffffffffffffffffffffffffffffffffff16146106d6576040517f08c379a00000000000000000000000000000000000000000000000000000000081526004016106cd90611baf565b60405180910390fd5b6106e0828261108c565b5050565b6000603360009054906101000a900473ffffffffffffffffffffffffffffffffffffffff16905090565b60606069805461071d90611aad565b80601f016020809104026020016040519081016040528092919081815260200182805461074990611aad565b80156107965780601f1061076b57610100808354040283529160200191610796565b820191906000526020600020905b81548152906001019060200180831161077957829003601f168201915b5050505050905090565b6000806107ab610ad3565b905060006107b98286610955565b9050838110156107fe576040517f08c379a00000000000000000000000000000000000000000000000000000000081526004016107f590611c41565b60405180910390fd5b61080b8286868403610adb565b60019250505092915050565b600080610822610ad3565b905061082f818585610d30565b600191505092915050565b600061084660016110ac565b9050801561086a576001600060016101000a81548160ff0219169083151502179055505b6108de6040518060400160405280600a81526020017f5741585020546f6b656e000000000000000000000000000000000000000000008152506040518060400160405280600481526020017f574158500000000000000000000000000000000000000000000000000000000081525061119c565b6108f08267055d10250b3103846111f9565b6108f8611359565b80156109515760008060016101000a81548160ff0219169083151502179055507f7f26b83ff96e1f2b6a682f133852f6798a09c465da95921460cefb384740249860016040516109489190611ca6565b60405180910390a15b5050565b6000606660008473ffffffffffffffffffffffffffffffffffffffff1673ffffffffffffffffffffffffffffffffffffffff16815260200190815260200160002060008373ffffffffffffffffffffffffffffffffffffffff1673ffffffffffffffffffffffffffffffffffffffff16815260200190815260200160002054905092915050565b6109e4610ad3565b73ffffffffffffffffffffffffffffffffffffffff16610a026106e4565b73ffffffffffffffffffffffffffffffffffffffff1614610a58576040517f08c379a0000000000000000000000000000000000000000000000000000000008152600401610a4f90611baf565b60405180910390fd5b600073ffffffffffffffffffffffffffffffffffffffff168173ffffffffffffffffffffffffffffffffffffffff1603610ac7576040517f08c379a0000000000000000000000000000000000000000000000000000000008152600401610abe90611d33565b60405180910390fd5b610ad081610fc6565b50565b600033905090565b600073ffffffffffffffffffffffffffffffffffffffff168373ffffffffffffffffffffffffffffffffffffffff1603610b4a576040517f08c379a0000000000000000000000000000000000000000000000000000000008152600401610b4190611dc5565b60405180910390fd5b600073ffffffffffffffffffffffffffffffffffffffff168273ffffffffffffffffffffffffffffffffffffffff1603610bb9576040517f08c379a0000000000000000000000000000000000000000000000000000000008152600401610bb090611e57565b60405180910390fd5b80606660008573ffffffffffffffffffffffffffffffffffffffff1673ffffffffffffffffffffffffffffffffffffffff16815260200190815260200160002060008473ffffffffffffffffffffffffffffffffffffffff1673ffffffffffffffffffffffffffffffffffffffff168152602001908152602001600020819055508173ffffffffffffffffffffffffffffffffffffffff168373ffffffffffffffffffffffffffffffffffffffff167f8c5be1e5ebec7d5bd14f71427d1e84f3dd0314c0f7b2291e5b200ac8c7c3b92583604051610c979190611915565b60405180910390a3505050565b6000610cb08484610955565b90507fffffffffffffffffffffffffffffffffffffffffffffffffffffffffffffffff8114610d2a5781811015610d1c576040517f08c379a0000000000000000000000000000000000000000000000000000000008152600401610d1390611ec3565b60405180910390fd5b610d298484848403610adb565b5b50505050565b600073ffffffffffffffffffffffffffffffffffffffff168373ffffffffffffffffffffffffffffffffffffffff1603610d9f576040517f08c379a0000000000000000000000000000000000000000000000000000000008152600401610d9690611f55565b60405180910390fd5b600073ffffffffffffffffffffffffffffffffffffffff168273ffffffffffffffffffffffffffffffffffffffff1603610e0e576040517f08c379a0000000000000000000000000000000000000000000000000000000008152600401610e0590611fe7565b60405180910390fd5b610e198383836113b2565b6000606560008573ffffffffffffffffffffffffffffffffffffffff1673ffffffffffffffffffffffffffffffffffffffff16815260200190815260200160002054905081811015610ea0576040517f08c379a0000000000000000000000000000000000000000000000000000000008152600401610e9790612079565b60405180910390fd5b818103606560008673ffffffffffffffffffffffffffffffffffffffff1673ffffffffffffffffffffffffffffffffffffffff1681526020019081526020016000208190555081606560008573ffffffffffffffffffffffffffffffffffffffff1673ffffffffffffffffffffffffffffffffffffffff1681526020019081526020016000206000828254610f359190611b0d565b925050819055508273ffffffffffffffffffffffffffffffffffffffff168473ffffffffffffffffffffffffffffffffffffffff167fddf252ad1be2c89b69c2b068fc378daa952ba7f163c4a11628f55a4df523b3ef84604051610f999190611915565b60405180910390a3610fac8484846113b7565b50505050565b610fc3610fbd610ad3565b826113bc565b50565b6000603360009054906101000a900473ffffffffffffffffffffffffffffffffffffffff16905081603360006101000a81548173ffffffffffffffffffffffffffffffffffffffff021916908373ffffffffffffffffffffffffffffffffffffffff1602179055508173ffffffffffffffffffffffffffffffffffffffff168173ffffffffffffffffffffffffffffffffffffffff167f8be0079c531659141344cd1fd0a4f28419497f9722a3daafe3b4186f6b6457e060405160405180910390a35050565b61109e82611098610ad3565b83610ca4565b6110a882826113bc565b5050565b60008060019054906101000a900460ff16156111235760018260ff161480156110db57506110d930611594565b155b61111a576040517f08c379a00000000000000000000000000000000000000000000000000000000081526004016111119061210b565b60405180910390fd5b60009050611197565b8160ff1660008054906101000a900460ff1660ff1610611178576040517f08c379a000000000000000000000000000000000000000000000000000000000815260040161116f9061210b565b60405180910390fd5b816000806101000a81548160ff021916908360ff160217905550600190505b919050565b600060019054906101000a900460ff166111eb576040517f08c379a00000000000000000000000000000000000000000000000000000000081526004016111e29061219d565b60405180910390fd5b6111f582826115b7565b5050565b600073ffffffffffffffffffffffffffffffffffffffff168273ffffffffffffffffffffffffffffffffffffffff1603611268576040517f08c379a000000000000000000000000000000000000000000000000000000000815260040161125f90612209565b60405180910390fd5b611274600083836113b2565b80606760008282546112869190611b0d565b9250508190555080606560008473ffffffffffffffffffffffffffffffffffffffff1673ffffffffffffffffffffffffffffffffffffffff16815260200190815260200160002060008282546112dc9190611b0d565b925050819055508173ffffffffffffffffffffffffffffffffffffffff16600073ffffffffffffffffffffffffffffffffffffffff167fddf252ad1be2c89b69c2b068fc378daa952ba7f163c4a11628f55a4df523b3ef836040516113419190611915565b60405180910390a3611355600083836113b7565b5050565b600060019054906101000a900460ff166113a8576040517f08c379a000000000000000000000000000000000000000000000000000000000815260040161139f9061219d565b60405180910390fd5b6113b0611638565b565b505050565b505050565b600073ffffffffffffffffffffffffffffffffffffffff168273ffffffffffffffffffffffffffffffffffffffff160361142b576040517f08c379a00000000000000000000000000000000000000000000000000000000081526004016114229061229b565b60405180910390fd5b611437826000836113b2565b6000606560008473ffffffffffffffffffffffffffffffffffffffff1673ffffffffffffffffffffffffffffffffffffffff168152602001908152602001600020549050818110156114be576040517f08c379a00000000000000000000000000000000000000000000000000000000081526004016114b59061232d565b60405180910390fd5b818103606560008573ffffffffffffffffffffffffffffffffffffffff1673ffffffffffffffffffffffffffffffffffffffff168152602001908152602001600020819055508160676000828254611516919061234d565b92505081905550600073ffffffffffffffffffffffffffffffffffffffff168373ffffffffffffffffffffffffffffffffffffffff167fddf252ad1be2c89b69c2b068fc378daa952ba7f163c4a11628f55a4df523b3ef8460405161157b9190611915565b60405180910390a361158f836000846113b7565b505050565b6000808273ffffffffffffffffffffffffffffffffffffffff163b119050919050565b600060019054906101000a900460ff16611606576040517f08c379a00000000000000000000000000000000000000000000000000000000081526004016115fd9061219d565b60405180910390fd5b816068908051906020019061161c929190611699565b508060699080519060200190611633929190611699565b505050565b600060019054906101000a900460ff16611687576040517f08c379a000000000000000000000000000000000000000000000000000000000815260040161167e9061219d565b60405180910390fd5b611697611692610ad3565b610fc6565b565b8280546116a590611aad565b90600052602060002090601f0160209004810192826116c7576000855561170e565b82601f106116e057805160ff191683800117855561170e565b8280016001018555821561170e579182015b8281111561170d5782518255916020019190600101906116f2565b5b50905061171b919061171f565b5090565b5b80821115611738576000816000905550600101611720565b5090565b600081519050919050565b600082825260208201905092915050565b60005b8381101561177657808201518184015260208101905061175b565b83811115611785576000848401525b50505050565b6000601f19601f8301169050919050565b60006117a78261173c565b6117b18185611747565b93506117c1818560208601611758565b6117ca8161178b565b840191505092915050565b600060208201905081810360008301526117ef818461179c565b905092915050565b600080fd5b600073ffffffffffffffffffffffffffffffffffffffff82169050919050565b6000611827826117fc565b9050919050565b6118378161181c565b811461184257600080fd5b50565b6000813590506118548161182e565b92915050565b6000819050919050565b61186d8161185a565b811461187857600080fd5b50565b60008135905061188a81611864565b92915050565b600080604083850312156118a7576118a66117f7565b5b60006118b585828601611845565b92505060206118c68582860161187b565b9150509250929050565b60008115159050919050565b6118e5816118d0565b82525050565b600060208201905061190060008301846118dc565b92915050565b61190f8161185a565b82525050565b600060208201905061192a6000830184611906565b92915050565b600080600060608486031215611949576119486117f7565b5b600061195786828701611845565b935050602061196886828701611845565b92505060406119798682870161187b565b9150509250925092565b600060ff82169050919050565b61199981611983565b82525050565b60006020820190506119b46000830184611990565b92915050565b6000602082840312156119d0576119cf6117f7565b5b60006119de8482850161187b565b91505092915050565b6000602082840312156119fd576119fc6117f7565b5b6000611a0b84828501611845565b91505092915050565b611a1d8161181c565b82525050565b6000602082019050611a386000830184611a14565b92915050565b60008060408385031215611a5557611a546117f7565b5b6000611a6385828601611845565b9250506020611a7485828601611845565b9150509250929050565b7f4e487b7100000000000000000000000000000000000000000000000000000000600052602260045260246000fd5b60006002820490506001821680611ac557607f821691505b602082108103611ad857611ad7611a7e565b5b50919050565b7f4e487b7100000000000000000000000000000000000000000000000000000000600052601160045260246000fd5b6000611b188261185a565b9150611b238361185a565b9250827fffffffffffffffffffffffffffffffffffffffffffffffffffffffffffffffff03821115611b5857611b57611ade565b5b828201905092915050565b7f4f776e61626c653a2063616c6c6572206973206e6f7420746865206f776e6572600082015250565b6000611b99602083611747565b9150611ba482611b63565b602082019050919050565b60006020820190508181036000830152611bc881611b8c565b9050919050565b7f45524332303a2064656372656173656420616c6c6f77616e63652062656c6f7760008201527f207a65726f000000000000000000000000000000000000000000000000000000602082015250565b6000611c2b602583611747565b9150611c3682611bcf565b604082019050919050565b60006020820190508181036000830152611c5a81611c1e565b9050919050565b6000819050919050565b6000819050919050565b6000611c90611c8b611c8684611c61565b611c6b565b611983565b9050919050565b611ca081611c75565b82525050565b6000602082019050611cbb6000830184611c97565b92915050565b7f4f776e61626c653a206e6577206f776e657220697320746865207a65726f206160008201527f6464726573730000000000000000000000000000000000000000000000000000602082015250565b6000611d1d602683611747565b9150611d2882611cc1565b604082019050919050565b60006020820190508181036000830152611d4c81611d10565b9050919050565b7f45524332303a20617070726f76652066726f6d20746865207a65726f2061646460008201527f7265737300000000000000000000000000000000000000000000000000000000602082015250565b6000611daf602483611747565b9150611dba82611d53565b604082019050919050565b60006020820190508181036000830152611dde81611da2565b9050919050565b7f45524332303a20617070726f766520746f20746865207a65726f20616464726560008201527f7373000000000000000000000000000000000000000000000000000000000000602082015250565b6000611e41602283611747565b9150611e4c82611de5565b604082019050919050565b60006020820190508181036000830152611e7081611e34565b9050919050565b7f45524332303a20696e73756666696369656e7420616c6c6f77616e6365000000600082015250565b6000611ead601d83611747565b9150611eb882611e77565b602082019050919050565b60006020820190508181036000830152611edc81611ea0565b9050919050565b7f45524332303a207472616e736665722066726f6d20746865207a65726f20616460008201527f6472657373000000000000000000000000000000000000000000000000000000602082015250565b6000611f3f602583611747565b9150611f4a82611ee3565b604082019050919050565b60006020820190508181036000830152611f6e81611f32565b9050919050565b7f45524332303a207472616e7366657220746f20746865207a65726f206164647260008201527f6573730000000000000000000000000000000000000000000000000000000000602082015250565b6000611fd1602383611747565b9150611fdc82611f75565b604082019050919050565b6000602082019050818103600083015261200081611fc4565b9050919050565b7f45524332303a207472616e7366657220616d6f756e742065786365656473206260008201527f616c616e63650000000000000000000000000000000000000000000000000000602082015250565b6000612063602683611747565b915061206e82612007565b604082019050919050565b6000602082019050818103600083015261209281612056565b9050919050565b7f496e697469616c697a61626c653a20636f6e747261637420697320616c72656160008201527f647920696e697469616c697a6564000000000000000000000000000000000000602082015250565b60006120f5602e83611747565b915061210082612099565b604082019050919050565b60006020820190508181036000830152612124816120e8565b9050919050565b7f496e697469616c697a61626c653a20636f6e7472616374206973206e6f74206960008201527f6e697469616c697a696e67000000000000000000000000000000000000000000602082015250565b6000612187602b83611747565b91506121928261212b565b604082019050919050565b600060208201905081810360008301526121b68161217a565b9050919050565b7f45524332303a206d696e7420746f20746865207a65726f206164647265737300600082015250565b60006121f3601f83611747565b91506121fe826121bd565b602082019050919050565b60006020820190508181036000830152612222816121e6565b9050919050565b7f45524332303a206275726e2066726f6d20746865207a65726f2061646472657360008201527f7300000000000000000000000000000000000000000000000000000000000000602082015250565b6000612285602183611747565b915061229082612229565b604082019050919050565b600060208201905081810360008301526122b481612278565b9050919050565b7f45524332303a206275726e20616d6f756e7420657863656564732062616c616e60008201527f6365000000000000000000000000000000000000000000000000000000000000602082015250565b6000612317602283611747565b9150612322826122bb565b604082019050919050565b600060208201905081810360008301526123468161230a565b9050919050565b60006123588261185a565b91506123638361185a565b92508282101561237657612375611ade565b5b82820390509291505056fea26469706673582212209919ddd3d70ba96404be007599458058c1a8963232e1382a0471af712c91891964736f6c634300080e0033",
  "immutableReferences": {},
  "source": "pragma solidity 0.8.14;\n\nimport \"@openzeppelin/contracts-upgradeable/proxy/utils/Initializable.sol\";\nimport \"@openzeppelin/contracts-upgradeable/token/ERC20/extensions/ERC20BurnableUpgradeable.sol\";\nimport \"@openzeppelin/contracts-upgradeable/access/OwnableUpgradeable.sol\";\n\n/**\n * @dev Vanilla upgradeable {ERC20} \"WAXP\" token:\n *\n */\ncontract WAXPERC20UpgradeSafe is Initializable, OwnableUpgradeable, ERC20BurnableUpgradeable {\n    uint8 public constant DECIMALS = 8;                         // The number of decimals for display\n    uint256 public constant INITIAL_SUPPLY = 386482894311326596;  // supply specified in base units\n\n    /**\n     * See {ERC20-constructor}.\n     */\n\n    function initialize(address escrow) public initializer {\n        ERC20Upgradeable.__ERC20_init(\"WAXP Token\", \"WAXP\");\n        _mint(escrow, INITIAL_SUPPLY);\n        __Ownable_init();\n    }\n\n    function decimals() public pure override returns (uint8) {\n        return DECIMALS;\n    }\n\n    /**\n     * @dev Destroys `amount` tokens from the contract owner.\n     *\n     * See {ERC20-_burn}.\n     * - only owner allow to call\n     */\n    function burn(uint256 amount) public override onlyOwner {\n        super.burn(amount);\n    }\n\n    /**\n     * @dev Destroys `amount` tokens from `account`, deducting from the caller's\n     * allowance.\n     *\n     * See {ERC20-_burn} and {ERC20-allowance}.\n     *\n     * Requirements:\n     *\n     * - the caller must have allowance for ``accounts``'s tokens of at least\n     * `amount`.\n     * - only owner allow to call\n     */\n    function burnFrom(address account, uint256 amount) public override onlyOwner {\n        super.burnFrom(account, amount);\n    }\n}\n",
  "sourcePath": "/home/aaron/dev/projects/wax/waxp-erc20/contracts/WAXPERC20.sol",
  "compiler": {
    "name": "solc",
    "version": "0.8.14+commit.80d49f37.Emscripten.clang"
  },
  "schemaVersion": "3.4.7",
  "updatedAt": "2022-05-29T03:39:05.457Z",
  "networkType": "ethereum",
  "devdoc": {
    "details": "Vanilla upgradeable {ERC20} \"WAXP\" token:",
    "kind": "dev",
    "methods": {
      "allowance(address,address)": {
        "details": "See {IERC20-allowance}."
      },
      "approve(address,uint256)": {
        "details": "See {IERC20-approve}. NOTE: If `amount` is the maximum `uint256`, the allowance is not updated on `transferFrom`. This is semantically equivalent to an infinite approval. Requirements: - `spender` cannot be the zero address."
      },
      "balanceOf(address)": {
        "details": "See {IERC20-balanceOf}."
      },
      "burn(uint256)": {
        "details": "Destroys `amount` tokens from the contract owner. See {ERC20-_burn}. - only owner allow to call"
      },
      "burnFrom(address,uint256)": {
        "details": "Destroys `amount` tokens from `account`, deducting from the caller's allowance. See {ERC20-_burn} and {ERC20-allowance}. Requirements: - the caller must have allowance for ``accounts``'s tokens of at least `amount`. - only owner allow to call"
      },
      "decimals()": {
        "details": "Returns the number of decimals used to get its user representation. For example, if `decimals` equals `2`, a balance of `505` tokens should be displayed to a user as `5.05` (`505 / 10 ** 2`). Tokens usually opt for a value of 18, imitating the relationship between Ether and Wei. This is the value {ERC20} uses, unless this function is overridden; NOTE: This information is only used for _display_ purposes: it in no way affects any of the arithmetic of the contract, including {IERC20-balanceOf} and {IERC20-transfer}."
      },
      "decreaseAllowance(address,uint256)": {
        "details": "Atomically decreases the allowance granted to `spender` by the caller. This is an alternative to {approve} that can be used as a mitigation for problems described in {IERC20-approve}. Emits an {Approval} event indicating the updated allowance. Requirements: - `spender` cannot be the zero address. - `spender` must have allowance for the caller of at least `subtractedValue`."
      },
      "increaseAllowance(address,uint256)": {
        "details": "Atomically increases the allowance granted to `spender` by the caller. This is an alternative to {approve} that can be used as a mitigation for problems described in {IERC20-approve}. Emits an {Approval} event indicating the updated allowance. Requirements: - `spender` cannot be the zero address."
      },
      "name()": {
        "details": "Returns the name of the token."
      },
      "owner()": {
        "details": "Returns the address of the current owner."
      },
      "renounceOwnership()": {
        "details": "Leaves the contract without owner. It will not be possible to call `onlyOwner` functions anymore. Can only be called by the current owner. NOTE: Renouncing ownership will leave the contract without an owner, thereby removing any functionality that is only available to the owner."
      },
      "symbol()": {
        "details": "Returns the symbol of the token, usually a shorter version of the name."
      },
      "totalSupply()": {
        "details": "See {IERC20-totalSupply}."
      },
      "transfer(address,uint256)": {
        "details": "See {IERC20-transfer}. Requirements: - `to` cannot be the zero address. - the caller must have a balance of at least `amount`."
      },
      "transferFrom(address,address,uint256)": {
        "details": "See {IERC20-transferFrom}. Emits an {Approval} event indicating the updated allowance. This is not required by the EIP. See the note at the beginning of {ERC20}. NOTE: Does not update the allowance if the current allowance is the maximum `uint256`. Requirements: - `from` and `to` cannot be the zero address. - `from` must have a balance of at least `amount`. - the caller must have allowance for ``from``'s tokens of at least `amount`."
      },
      "transferOwnership(address)": {
        "details": "Transfers ownership of the contract to a new account (`newOwner`). Can only be called by the current owner."
      }
    },
    "version": 1
  },
  "userdoc": {
    "kind": "user",
    "methods": {
      "initialize(address)": {
        "notice": "See {ERC20-constructor}."
      }
    },
    "version": 1
  }
}